:020000040000FA
:10000000B0050010A1010000A5010000A70100003B
:10001000A9010000AB010000AD01000000000000DC
:10002000000000000000000000000000AF01000020
:10003000B101000000000000B3010000B5010000A4
:10004000B7010000B7010000B7010000B7010000D0
:10005000B7010000B7010000B7010000B7010000C0
:10006000B7010000B7010000B7010000B7010000B0
:10007000B7010000B7010000B7010000B7010000A0
:10008000B7010000B7010000D50B0000B701000068
:10009000B7010000B7010000B7010000B701000080
:1000A000B7010000B7010000B7010000B701000070
:1000B000B7010000B7010000B7010000B701000060
:1000C00000F002F800F040F80CA030C808382418FE
:1000D0002D18A246671EAB4654465D46AC4201D180
:1000E00000F032F87E460F3E0FCCB6460126334272
:1000F00000D0FB1AA246AB4633431847CC010000A0
:10010000EC010000103A02D378C878C1FAD852073F
:1001100001D330C830C101D504680C6070470000BD
:100120000023002400250026103A01D378C1FBD813
:10013000520700D330C100D50B6070471FB5C046D1
:10014000C0461FBD10B510BD00F088F81146FFF77E
:10015000F5FF00F06FFD00F0A0F803B4FFF7F2FF29
:1001600003BC00F0A5F8000070B505460C46164625
:1001700002E00FCC0FC5103E102EFAD2082E02D38B
:1001800003CC03C5083E042E07D301CC01C5361F9E
:1001900003E021782970641C6D1C761EF9D270BDB5
:1001A00008480047FEE7FEE7FEE7FEE7FEE7FEE75A
:1001B000FEE7FEE7FEE7FEE703480449024A044B78
:1001C00070470000C1000000B0030010B00500102F
:1001D000B0030010F8B5042A2CD3830712D00B7893
:1001E000491C0370401C521E83070BD00B78491C1E
:1001F0000370401C521E830704D00B78491C037007
:10020000401C521E8B079B0F02D1FFF7ADFFF8BDBC
:10021000C91ADE0020239D1B08C907E0F3401C46D5
:1002200008C91F46AF40274380C0121F042AF5D2D9
:10023000EB08C91A521EEAD40B78491C0370401C03
:10024000521EE4D40B78491C0370401C521EDED4AD
:1002500009780170F8BD704770477047754600F027
:1002600023F8AE46050069465346C008C0008546DF
:1002700018B020B5FFF7A0FF60BC00274908B646BC
:100280000026C0C5C0C5C0C5C0C5C0C5C0C5C0C5A5
:10029000C0C5403D49008D4670470446C046C04633
:1002A0002046FFF75AFF0000004870475003001037
:1002B00002480349ABBE70470D0000001800000063
:1002C0002600020070470000AC0E00000000001085
:1002D0003000000004010000DC0E000030000010BF
:1002E0008005000020010000000000000000000068
:1002F000000000000000000000000000FFFFFFFF02
:1003000030B501460878AA2801D0002030BD8C788D
:100310004D782002284302468C784D7820022843ED
:1003200000128018C2B2002305E0C81CC05C80180F
:10033000C2B2581C83B20C2BF7DB5042C2B2C87B4E
:10034000904201D00020E1E70120DFE770B5FF48CF
:1003500000680068044630340020FC4908390880F1
:100360004FE000262046FFF7CBFF002839D00025BC
:1003700015E0E800F649095AA2786378100218439C
:1003800081420AD1F14800680068201A80B2E90071
:10039000EF4A89184860012606E0681C85B2EB48E0
:1003A000083800888542E4DB00BF002E19D1A1780F
:1003B000627808021043E54908390988C900E44A0F
:1003C0005052E24909680968611A8AB2DF4908395E
:1003D0000888411CDD4B083B1980C100DC4BC91863
:1003E0004A601034D94800680068012109034018A8
:1003F000A04200D808E0D54808380088642800D119
:1004000002E02078FF28ACD100BF70BDF0B5CBB0C2
:1004100004460D46002603E0FF200BA98855761CF4
:10042000FF2EF9D90BAF2802000E38702804000EF9
:1004300038742020C5553220069020790790207905
:10044000089072B601A906A8C04A0C3A12689047F3
:1004500062B60198002802D000204BB0F0BD3320D6
:100460000690206807900BA80890FF2001300990A3
:10047000B8480A9072B601A906A8B44A0C3A1268A4
:10048000904762B60198002801D00020E5E73820A7
:100490000690206807900BA808900420099072B677
:1004A00001A906A8A94A0C3A1268904762B60198B9
:1004B000002801D00020D0E70120CEE710B58AB097
:1004C000044632200590207906902079079072B674
:1004D000694605A89D4A0C3A1268904762B6009892
:1004E000002802D000200AB010BD342005902079E9
:1004F0000690207907909748089072B6694605A83B
:10050000924A0C3A1268904762B60098002801D0CF
:100510000020E8E70120E6E701460868024630329D
:1005200008E0103201231B030868C018904201D86C
:10053000184670471078FF28F3D10868101AF8E7BA
:10054000F7B5CAB00C461546002604E0FF200AA9FC
:100550008855701C86B2FF2EF8DD2846E917090E73
:10056000491909120902691A0AAA8F181022384675
:100570004A99FFF72FFE002606E04A98C01C815DCD
:10058000F81C8155701C86B20C2EF6DB32200590CB
:10059000207906902079079072B6694605A86B4AC3
:1005A0000C3A1268904762B60098002802D00020EA
:1005B0004DB0F0BD33200590E917090E4919091215
:1005C0000902691A284622685219511A06910AA886
:1005D0000790FF20013008905E48099072B6694686
:1005E00005A85A4A0C3A1268904762B6009800284B
:1005F00001D00020DCE738200590206840190690E3
:100600002846E917090E491909120902691A0AAAA6
:10061000891807910420089072B6694605A84B4ACC
:100620000C3A1268904762B60098002801D000206A
:10063000BEE70120BCE7F8B504460D4628680078FF
:10064000FF2805D02846FFF739FF002800D1F8BD64
:1006500041492846FFF7DAFE002800D1F7E73027A6
:10066000002613E0F1003A4A8918206849684018CA
:1006700000903A4629460098FFF762FF002800D113
:10068000E5E73846103087B2701C86B22F4808382C
:1006900000888642E6DB31492046FFF7B7FE002896
:1006A00000D1D4E72D4955312846FFF7AFFE002889
:1006B00000D1CCE72046FFF701FF002800D1C6E7B4
:1006C000224805602846FFF727FF2049091F0860D8
:1006D000FFF73CFE0120BAE7F8B51C481C38046857
:1006E0000830056820780104207C000201432020A6
:1006F000005D01430E4628780004297C0902084366
:100700002021495D08430746154886420ED012480D
:1007100086420BD011485530864207D00F4886429A
:1007200004D00A481C38FFF7C9FE0D4E0C4887421A
:100730001BD00948874218D008485530874214D04A
:100740000648874211D0014814380BE01C00001005
:100750003000001040190100FFFFAA00AAAAAA0059
:10076000FFFFFF00FFF7AAFEFB4FFC48301872D0D6
:10077000552871D0FA49401846D055210904401A2D
:1007800041D1F64838182ED0552822D0F4494018C7
:1007900010D055210904401A35D1F249F248FFF72B
:1007A00035FE002800D1F8BD3020EF49183108602F
:1007B000ED48F8E7EB49EC480830FFF727FE002842
:1007C00000D1F0E73020E8491831086008461038B9
:1007D000E9E7E5480830FFF79FFEE3491831086074
:1007E00008461038DFE7E04908460830FFF723FFE6
:1007F000002800D1D7E7DC48FFF78EFEDA49183130
:100800000860D948CFE703E1D448381841D05528CB
:1008100029D0D349401810D055210904401A4CD191
:10082000D049D148FFF7F2FD002800D1BBE73020C6
:10083000CD4918310860CC48B5E7CB480830FFF700
:100840003DFE002800D1AEE7C649C748FFF7DEFDF0
:10085000002802D1A7E77DE030E03020C2491831FE
:100860000860C1489FE7C048FFF728FE002800D174
:1008700099E7BD4908460830FFF7DDFE002800D1A2
:1008800091E7B948FFF748FEB74918310860B64804
:1008900089E7B5480830FFF711FE002800D182E74C
:1008A000B049B148FFF7B2FD002800D17BE7302006
:1008B000AD4918310860AC4875E7A9E0A748381879
:1008C00038D0552827D0A64940180BD05521090407
:1008D000401A3ED1A448FFF71FFEA3491831086013
:1008E000A14860E7A0480830FFF7E8FD002800D1E4
:1008F00059E79D4908319C48FFF79DFE002800D12B
:1009000051E799480830FFF707FE9749183108600A
:100910000846103847E794480830FFF7CFFD002815
:1009200000D140E79048FFF7F7FD8F491831086084
:100930008D4838E78C480830FFF7C0FD002800D10B
:1009400031E78948FFF7E8FD874918310860864894
:1009500029E75DE0814838183FD055282DD08049DF
:10096000401815D055210904401A50D17E4908314C
:100970007D48FFF760FE002800D114E77A48083070
:10098000FFF7CAFD784918310860084610380AE7B1
:100990007548FFF793FD002800D104E771497248BC
:1009A0000830FFF733FD002800D1FCE630206E4907
:1009B0001831086008461038F5E66B48FFF77EFDF1
:1009C000002800D1EFE668480830FFF7A5FD66492A
:1009D0001831086008461038E5E66348FFF76EFDF9
:1009E000002800D1DFE660480830FFF767FD0028E7
:1009F00000D1D8E65B495C48FFF708FD002800D12C
:100A0000D1E630205849183108605748CBE600BF7E
:100A100000BF0020C7E610B5FFF75EFE52491C314B
:100A20000860002800D110BDFFF790FC0120FAE714
:100A3000024600210AE0C8004C4B185A904203D1EC
:100A4000C800C01840687047481C81B2464814303E
:100A500000888142EFDB0020F5E7F7B582B00C4655
:100A600015460298FFF7E4FF0646002E01D105B0B7
:100A7000F0BD3D481C3000680068871900200190D7
:100A800007E0F81C0199405C60540198401C80B25A
:100A900001900198A842F4DB0120E8E7F0B589B0A5
:100AA00004460D46164600200190324602A9204613
:100AB000FFF7D3FF00280ED000270AE0E85D02A967
:100AC000C95D884203D10198401C80B20190781C16
:100AD00087B2B742F2DB0198B04202D1012009B0DF
:100AE000F0BD21481830006801210903884224D351
:100AF0001D481C3000681C49884206D108311A483C
:100B0000FFF799FD00280FD1E9E717481C3000686E
:100B100015490831884207D1083908460830FFF7DF
:100B20008AFD002800D1DAE70F481830006801215B
:100B30000903884201D30020D1E7AA206B4618752B
:100B40005C75200A987508ABDC70D87821124018C3
:100B5000D870002720E00000FFFFFF00565555FF2A
:100B6000ABAAFFFFFFAAAA0000000010300000108F
:100B7000B74204DAE95D05A80330C15503E000215E
:100B800005A80330C15508ABD97805A80330C05D6E
:100B90000818D870781C87B20C2FE9DB08ABD8781E
:100BA0004042D8700A48006882B20948001D0168B6
:100BB00005A8FFF7C5FC002800D190E704480068AD
:100BC000103003490860FFF7C1FB012087E70000F0
:100BD0001800001010B501204F4908604F480078F8
:100BE000401C4E490870084600780F2801DD00209F
:100BF0000870012249491046FFF750FF002801D133
:100C000000BFFEE74648C06B0F21090288434449F4
:100C1000C8630846C06B414909780907090D0843B4
:100C20003F49C86300BF1221012088403D49086048
:100C300000BF10BD10B500F00AF90F2000023A49BC
:100C400008603A48006801214902084337490860B2
:100C5000002031494860022048600020486003209D
:100C600048617D20C000C86031488861012008606B
:100C70004860FFF7D0FE002801D100BFFEE7012247
:100C800026491046FFF7E9FE002801D123490870E4
:100C900000BF1221012088402649086000BF0A21B8
:100CA000122000F002F800BFFEE710B5002819DAA4
:100CB000214A03071B0F083B9B089B00D258830760
:100CC000DC0EFF23A3409A43CB061B0E8407E40EE1
:100CD000A3401A43184B0407240F083CA408A4009F
:100CE0001A5118E0134A03231B02D21883089B00F1
:100CF000D3588207D40EFF22A2409343CA06120E95
:100D00008407E40EA24013430A4A03242402121962
:100D10008408A400135110BD0040014020000010C1
:100D2000C03F015080E200E000800150808004401C
:100D3000C309000000E100E01CED00E05549564AFF
:100D400011600121554A116051600021516001215B
:100D5000516000BF51494968C907C90FFAD04F49CE
:100D600040398868400A4002202101430322114390
:100D70004A4A403A91604A49896B80229143484AE5
:100D8000916300BF45494039C968C907C90FF9D007
:100D90000321424A11630121516300215163012162
:100DA000516300BF3D49496BC907C90FFAD0012102
:100DB0003A4A91633849096889003A4A11601146F4
:100DC0000968394A116070473549896B052212025A
:100DD0009143334A91630121304A9160D1600021EF
:100DE000D1600121D16000BF2C49C968C907C90F72
:100DF000FAD02A4940390869400A400220210143BB
:100E000003221143254A403A116100BF234940396A
:100E10004969C907C90FF9D00121204A8032116000
:100E20005160002151600121516000BF1B49803198
:100E30004968C907C90FF9D00121184A8032916069
:100E40001749896B92151143154A9163704700B594
:100E500000201249403908621148806B20218843E4
:100E60000F498863002300E05B1CFF2BFCD9FFF7D0
:100E700065FF0B48806B0521090288430849886398
:100E80000648403000680121090408430349403105
:100E9000086000BD001BB700240000104080044023
:100EA00000820440280000102C00001000200000E8
:100EB000020000000030000003000000F11FFF1FCF
:100EC0000000000000000000000000000000000022
:0C0ED00000093D0000093D0000093D0044
:04000005000000C136
:00000001FF
