:020000040000FA
:10000000A8050010B5020000B9020000BB02000004
:10001000BD020000BF020000C1020000000000009D
:10002000000000000000000000000000C30200000B
:10003000C502000000000000C7020000C902000065
:10004000CB02000065010000CB020000CB020000E3
:10005000CB020000CB020000CB020000CB0200006C
:10006000CB020000CB020000CB020000CB0200005C
:10007000CB020000CB020000CB020000CB0200004C
:10008000CB020000CB020000CB020000CB0200003C
:10009000CB020000CB020000CB020000CB0200002C
:1000A000CB020000CB020000CB020000CB0200001C
:1000B000CB020000CB020000CB020000CB0200000C
:1000C000CB02000000F002F800F03CF80AA090E833
:1000D000000C82448344AAF10107DA4501D100F003
:1000E00031F8AFF2090EBAE80F0013F0010F18BF94
:1000F000FB1A43F001031847600E0000800E000059
:10010000103A24BF78C878C1FAD8520724BF30C843
:1001100030C144BF04680C60704700000023002415
:1001200000250026103A28BF78C1FBD8520728BF07
:1001300030C148BF0B6070471FB500F005FF1FBD01
:1001400010B510BD00F0C6FE1146FFF7F5FF00F038
:1001500034F800F0CCF803B4FFF7F2FF03BC00F072
:10016000E9FE000010B501204FF0402108604C4826
:100170000078401C4A4908700122104600F089FCB2
:1001800008B900BFFEE74FF030404649C8637C2005
:10019000C8654348007800F00400400740490978EA
:1001A00001F0030140EA01703E4988633C48007851
:1001B00000F0F8004010886510BD10B500F006FD95
:1001C0003948C06820F04F403749C8600846C06CC5
:1001D00020F04F40C8640846C06C40F00A40C86434
:1001E0003048006A40F030402E4908622E480069CD
:1001F00043F6F07188432C4908610846006D43F6C8
:10020000F0718843284908650846006D42F6A02130
:100210000843254908652348006C40F07C002149CB
:1002200008644FF47A704FF04021C86040F2833088
:100230008861032048610120486000F0E3FB08B9B1
:1002400000BFFEE701221649104600F0FEFB10B980
:1002500000201349087000BF012101FA01F049098B
:100260004FF0E02202EB8101C1F8000100BF00BFA6
:100270000120002808DA4FF00A004FEAC0000B4ABC
:100280006FF00201505407E04FF00A004FEAC0003F
:1002900007494FF00102885400BF00BFFEE700008D
:1002A0002000001000C0092000C0024018ED00E04E
:1002B00000E400E008480047FEE7FEE7FEE7FEE74F
:1002C000FEE7FEE7FEE7FEE7FEE7FEE70348044938
:1002D000024A044B70470000C5000000A80300104C
:1002E000A8050010A8030010704770477047044627
:1002F000AFF300802046FFF72EFF7047FFFFFFFFA0
:1003000001460878AA2801D000207047B1F8010002
:10031000C2B2B1F8010002EB1020C2B2002305E026
:10032000C81CC05C1044C2B2581C83B20C2BF7DB53
:100330005042C2B2C87B904201D00020E5E70120C4
:10034000E3E770B5FF480068006800F13004002062
:10035000FC490839088049E000262046FFF7D0FF15
:10036000002834D0002513E0F74830F83500B4F801
:10037000011088420AD1F34800680068201A80B250
:10038000F14901EBC5014860012606E0681C85B211
:10039000EC48083800888542E6DB00BFBEB9B4F8F7
:1003A0000100E949E74A083A128821F83200E54994
:1003B00009680968611A8AB2E24908390888411C4B
:1003C000E04B083B1980E04901EBC0014A60103462
:1003D000DC480068006800F58050A04200D808E0C2
:1003E000D84808380088642800D102E02078FF2827
:1003F000B2D100BF70BDF0B5CBB004460D460027AA
:1004000003E0FF200BA9C8557F1CFF2FF9D90BAEC5
:10041000280C3070280A307486F82050322006905C
:10042000207907902079089072B601A906A8C54ADC
:100430000C3A1268904762B6019810B100204BB098
:10044000F0BD33200690206807900BA808904FF469
:1004500080700990BD480A9072B601A906A8B94AF1
:100460000C3A1268904762B6019808B10020E6E79E
:1004700038200690206807900BA808900420099067
:1004800072B601A906A8AF4A0C3A1268904762B644
:10049000019808B10020D2E70120D0E710B58AB05A
:1004A000044632200590207906902079079072B694
:1004B000694605A8A34A0C3A1268904762B60098AC
:1004C00010B100200AB010BD3420059020790690AC
:1004D000207907909D48089072B6694605A8994A08
:1004E0000C3A1268904762B6009808B10020E9E71C
:1004F0000120E7E70246106800F1300108E0103102
:10050000106800F58050884202D84FF48050704740
:100510000878FF28F3D11068081AF8E72DE9F041B0
:10052000CAB004460D461646002704E0FF200AA97B
:10053000C855781C87B2FF2FF8DD3046F11706EB5F
:1005400011610912A6EB01210AAA01EB020810228F
:100550002146404600F046FC002706E0E01CC15D55
:1005600008F10300C155781C87B20C2FF6DB32204E
:100570000590287906902879079072B6694605A8F3
:10058000704A0C3A1268904762B6009818B1002081
:100590004AB0BDE8F08133200590F11706EB1161F8
:1005A0000912A6EB012130462A683244511A0691FD
:1005B0000AA807904FF4807008906448099072B6BA
:1005C000694605A85F4A0C3A1268904762B60098DF
:1005D00008B10020DCE738200590286830440690F8
:1005E0003046F11706EB11610912A6EB01210AAAA8
:1005F000114407910420089072B6694605A8514A33
:100600000C3A1268904762B6009808B10020BFE724
:100610000120BDE72DE9F04104460D462868007829
:10062000FF2806D02846FFF739FF10B90020BDE8A3
:10063000F08147492846FFF7DEFE08B90020F6E7BB
:100640004FF03008002613E03F4901EBC601206857
:1006500049684718424629463846FFF75FFF08B900
:100660000020E4E708F110001FFA80F8701C86B241
:100670003448083800888642E6DB36492046FFF7D2
:10068000BAFE08B90020D2E7324955312846FFF7B3
:10069000B2FE08B90020CAE72046FFF7FFFE08B9FE
:1006A0000020C4E7274805602846FFF723FF2549B7
:1006B000091F0860FFF745FE0120B8E72DE9F0416A
:1006C00020481C3804680830056820780004217C24
:1006D00040EA012094F8201040EA0106287800043E
:1006E000297C40EA012095F8201040EA01076FF0CC
:1006F0007F4086420FD0164886420CD015485530B0
:10070000864208D01348864205D00E481C38FFF7B1
:10071000C5FE6FF07F466FF07F4087420FD00C48D8
:1007200087420CD00B485530874208D00948874291
:1007300005D004481438FFF7B1FE6FF07F47054835
:10074000404209E01C000010280000104019010080
:10075000FFFFAA00AAAAAA00301873D0552872D0A9
:10076000A0F5AA40553846D0B0F5AA0F42D1F848B6
:1007700038182FD0552823D0A0F5AA40553810D0CE
:10078000B0F5AA0F36D1F349F348FFF734FE10B99C
:100790000020BDE8F0813020EF4918310860EE48B4
:1007A000F7E7EC49EC480830FFF725FE08B90020D0
:1007B000EFE73020E84918310860A1F11000E8E7C0
:1007C000E5480830FFF796FEE34918310860A1F1CB
:1007D0001000DEE7E04901F10800FFF71BFF08B950
:1007E0000020D6E7DC48FFF785FEDB4918310860BA
:1007F000D948CEE703E1D648381841D0552829D04A
:10080000A0F5AA4055380FD0B0F5AA0F4CD1D14968
:10081000D148FFF7F0FD08B90020BAE73020CE49F3
:1008200018310860CC48B4E7CB480830FFF736FEF3
:1008300008B90020ADE7C749C748FFF7DCFD18B984
:100840000020A6E77DE030E03020C3491831086081
:10085000C1489EE7C048FFF721FE08B9002098E78D
:10086000BD4901F10800FFF7D5FE08B9002090E767
:10087000B948FFF73FFEB84918310860B64888E725
:10088000B5480830FFF70AFE08B9002081E7B149F2
:10089000B148FFF7B0FD08B900207AE73020AE4933
:1008A00018310860AC4874E7A9E0A948381838D076
:1008B000552827D0A0F5AA4055380AD0B0F5AA0F80
:1008C0003ED1A548FFF716FEA34918310860A2489B
:1008D0005FE7A1480830FFF7E1FD08B9002058E7BD
:1008E0009D4908319C48FFF795FE08B9002050E764
:1008F00099480830FFF7FEFD974918310860A1F1CB
:10090000100046E794480830FFF7C8FD08B90020FA
:100910003FE79148FFF7EEFD8F49183108608E4898
:1009200037E78D480830FFF7B9FD08B9002030E7F8
:100930008948FFF7DFFD884918310860864828E7B5
:100940005DE0834838183FD055282DD0A0F5AA4047
:10095000553814D0B0F5AA0F50D17F4908317E48E0
:10096000FFF758FE08B9002013E77B480830FFF76F
:10097000C1FD794918310860A1F1100009E77648F6
:10098000FFF78CFD08B9002003E772497248083070
:10099000FFF731FD08B90020FBE630206E49183121
:1009A0000860A1F11000F4E66B48FFF777FD08B985
:1009B0000020EEE668480830FFF79CFD66491831D4
:1009C0000860A1F11000E4E66348FFF767FD08B98D
:1009D0000020DEE660480830FFF760FD08B900201F
:1009E000D7E65C495C48FFF706FD08B90020D0E671
:1009F00030205949183108605748CAE600BF00BF87
:100A00000020C6E610B5FFF759FE53491C310860B7
:100A100008B9002010BDFFF794FC0120FAE7014659
:100A200000220BE04D4830F83200884204D14B4898
:100A300000EBC20040687047501C82B24648143038
:100A400000888242EEDB0020F5E72DE9F0470446FE
:100A50000D4616462046FFF7E2FF074617B900206D
:100A6000BDE8F0873C481C300068006800EB0708D0
:100A70004FF0000909E008F1030010F8090005F83B
:100A8000090009F101001FFA80F9B145F3DB0120EB
:100A9000E6E72DE9F04188B004460D4616464FF0D2
:100AA0000008324601A92046FFF7CFFF70B10027AA
:100AB0000AE0E85D01A9C95D884203D108F101009F
:100AC0001FFA80F8781C87B2B742F2DBB04503D139
:100AD000012008B0BDE8F0811F4818300068B0F56B
:100AE000805F23D31C481C3000681B49884206D114
:100AF00008311948FFF78EFD80B90020E9E7164854
:100B00001C30006814490831884207D1083901F1C6
:100B10000800FFF77FFD08B90020DAE70E4818301B
:100B20000068B0F5805F01D30020D2E7AA208DF8DD
:100B30001000ADF81140E0B28DF81F009DF81F00C5
:100B400000EB1420C0B28DF81F0000271EE000004B
:100B5000565555FFFFAAAA000000001028000010FB
:100B6000B74204DAE95D0DF11300C15503E000213D
:100B70000DF11300C1559DF81F100DF11300C05D5C
:100B80000844C0B28DF81F00781C87B20C2FE7DB39
:100B90009DF81F004042C0B28DF81F000A4800684F
:100BA00082B20948001D016804A8FFF7B7FC08B924
:100BB00000208EE704480068103003490860FFF702
:100BC000C0FB012085E700001800001020207649B6
:100BD000086000BF7448006810F0400FFAD003208E
:100BE000724908604FF060607149C1F8A8014FF088
:100BF0004040704908604FF001006F4908604FF0B5
:100C00000B006E4908604FF00100A1F1040108607B
:100C10004FF0AA006A4908604FF055006449C1F8D6
:100C20008C0000BF6748006810F0806FFAD0032086
:100C3000654908604FF0AA005D49C1F88C004FF08B
:100C400055005F4908604FF0000060490860604847
:100C5000604908604FF000005549C1F8C801594883
:100C60000068C0F30160032868D15348006810F0A1
:100C7000030006D0012823D002283FD003285CD1EE
:100C800000E000BF4F480068C0F30E0000F1010013
:100C90004FEA40014648D0F88800C0F3074000F111
:100CA0000100B1FBF0F14C4801FB00F13F48006846
:100CB000C0B200F10100B1FBF0F0484908603CE02F
:100CC00040480068C0F30E0000F101004FEA400107
:100CD0003748D0F88800C0F3074000F10100B1FBAD
:100CE000F0F13F4801FB00F130480068C0B200F16C
:100CF0000100B1FBF0F0394908601EE0314800689E
:100D0000C0F30E0000F101004FEA40012848D0F87E
:100D10008800C0F3074000F10100B1FBF0F14FF48F
:100D2000FA4001FB00F121480068C0B200F1010067
:100D3000B1FBF0F02949086000BF2FE01E480068B1
:100D400010F0030006D0012810D0022819D0032883
:100D500023D100E000BF15480068C0B200F10100D7
:100D60001D49B1FBF0F01D49086016E00F4800680E
:100D7000C0B200F101001A49B1FBF0F01749086058
:100D80000BE00A480068C0B200F101004FF4FA41DC
:100D9000B1FBF0F01149086000BF00BF43F23A0018
:100DA0000349086070470000A0C10F4004C10F4014
:100DB00000C00F40ACC10F400CC10F4084C00F40B9
:100DC0008CC00F4088C00F4080C00F4008C10F404A
:100DD000DE97EA04C4C00F4000093D002400001063
:100DE000001BB700032A40F2318010F0030C00F022
:100DF000158011F8013BBCF1020F624498BF11F855
:100E000001CB00F8013B38BF11F8013BA2F104020D
:100E100098BF00F801CB38BF00F8013B11F0030385
:100E200000F02680083AC0F0098051F8043B51F8E0
:100E300004CB40F8043B40F804CBF3E7121D5CBF41
:100E400051F8043B40F8043BAFF30080D20724BFC5
:100E500011F8013B11F801CB48BF11F8012B24BF59
:100E600000F8013B00F801CB48BF00F8012B7047A8
:100E700010B5203AC0F00B80B1E81850203AA0E835
:100E80001850B1E81850A0E81850BFF4F5AF5FEA69
:100E9000027C24BFB1E81850A0E8185044BF18C91C
:100EA00018C0BDE810405FEA827C24BF51F8043BC3
:100EB00040F8043B08BF7047D20728BF31F8023B17
:100EC00048BF11F8012B28BF20F8023B48BF00F8AB
:100ED000012B7047754600F023F8AE4605006946C1
:100EE000534620F00700854618B020B5FFF7EEF90D
:100EF000BDE820404FF000064FF000074FF000081B
:100F00004FF0000B21F00701AC46ACE8C009ACE89B
:100F1000C009ACE8C009ACE8C0098D4670470000C4
:100F200000487047480300100148704770470000B0
:100F30004C03001003494FF01800ABBE704700008F
:100F4000BBF3FFFF2600020010B5FFF7EDFF4FF0E7
:100F50000001016010BD0000780F000000000010CB
:100F60002800000000010000A00F00002800001071
:100F7000800500001C010000006000000600000069
:100F80000070000007000000F11FFF1F00000000BC
:100F900000000000000000000000000000093D000B
:04000005000000C532
:00000001FF
